:020000040000FA
:02000000FE29D7
:1002E4009C011C1C7329080003308E000130C002DD
:1002F4000030031CC103C102400A0319410A031957
:100304000800053081000B110B1D86297829013066
:100314008E0081010615051D8D290108C200C30147
:100324004208C4004308C500FB30FF007F0886056F
:10033400FB30FF007F0887054508C1004408C00062
:1003440008007030FF007F089004880101308E009F
:10035400F930FF007F088605F930FF007F08870524
:10036400FB30FF007F088505091501309A009B01C9
:10037400803096001F3092001030950094010430B4
:1003840093000230AE008030AD000230B500B601FB
:100394002030B700B8010330B2000530B300B40117
:1003A400C130B1000030AA004030AB000030AC00D6
:1003B40072215A30C8000030C9000130C802003030
:1003C400031CC903C902480A0319490A0319D42999
:1003D40089214008003EC60041080318013E403E02
:1003E400C7004608AA004708AB00AC012030C00093
:0C03F4000030C1007621DF298301A3291D
:02400E00E03E92
:00000001FF
