:020000040000FA
:02000000FE29D7
:1002DC009C011C1C6F290800772981010B110B1D37
:1002EC0075290130C0020030031CC103C102400A51
:1002FC00031D8429410A031D8429852973290800BB
:10030C0081010615051D88290108C200C301420898
:10031C00C4004308C500FB30FF007F088605FB3096
:10032C00FF007F0887054508C1004408C00008008D
:10033C007030FF007F089004880101308E00F93086
:10034C00FF007F088605F930FF007F088705FB302A
:10035C00FF007F088505091501309A009B0180304C
:10036C0096001F30920010309500940104309300D9
:10037C000230AE008030AD000230B500B601203046
:10038C00B700B8010330B2000530B300B401C1307E
:10039C00B1000030AA004030AB000030AC006E2140
:1003AC00E830C8000330C900EE2986214008003E21
:1003BC00C60041080318013E403EC7004608AA008B
:1003CC004708AB00AC016430C0000030C1007221A2
:1003DC000130C8020030031CC903C902480A031DBE
:1003EC00FB29490A031DFB29FC29DB29CF290028FD
:0403FC0083019E29B2
:02400E00E03E92
:00000001FF
