:020000040000FA
:02000000FD29D8
:100354007030FF007F089004880101308E00F9306E
:10036400FF007F088605F930FF007F088705FB3012
:10037400FF007F0885050915803096001F30920024
:10038400103095009401043093000230AE008030A8
:10039400AD000230B500B6012030B700B80103301B
:1003A400B2000530B300B401C130B10081010615BB
:1003B400051DDA290108003EC00040300318413011
:1003C400C1004008AA004108AB000030C11BFF3047
:1003D400AC00FB30FF007F088605FB30FF007F0880
:1003E40087056430C20081010B110B1DF729C20B74
:0C03F400F529D8290028C2018301AA299C
:02400E00E03E92
:00000001FF
