:020000040000FA
:02000000FB29DA
:100324007030FF007F089004880101308E00F9309E
:10033400FF007F088605F930FF007F088705FB3042
:10034400FF007F088505091580309600FC30FF000A
:100354007F0893051F309200103095009401131507
:100364000230AE008030AD000230B500B60120305E
:10037400B700B8010330B2000530B300B401C13096
:10038400B10081010615051DC529FB30FF007F085A
:100394008605FB30FF007F0887050108C300C40100
:1003A4000310C30DC40D0310C30DC40D4308C000D6
:1003B4004408C100400841040319E129E229EE2957
:1003C4000030C0070318C10A4030C1074008AA0022
:1003D4004108AB00AC01F129AA014030AB00643004
:1003E400C20081010B110B1DF529C20BF329C3298E
:0C03F4000028C001C101C2018301922950
:02400E00E03E92
:00000001FF
